:020000040000FA
:020000005C287A
:08000800AE00030EAF00040876
:10001000B8000A08B7000B1D4828301C2028B01C67
:1000200019282608B1002508B3002408B2003010B2
:1000300020282508B1002408B3002308B20030109E
:10004000A70B24280330A7002708820700002A28CE
:1000500033283D288512000087143108512087007D
:10006000000005114628B018851600000714330853
:1000700051208700000087104628851200000515D2
:1000800032085120870000000710462881010B111B
:1000900037088A00380884002F0E8300AE0E2E0E1B
:1000A00009008207033407340B340F341334173438
:1000B0001B341F342334273407309900B001B014A7
:1000C0000130A700B101B301B201831600308700EF
:1000D000DB3085008130810050309F00033091007B
:1000E0008312E0308B00C1309F007628AC01AD0157
:1000F0002030B9006F30B4001830B500B40B81283F
:10010000B50B7E2883289F149F1884288B1300002A
:100110008B1B862883161E0883128B170310AC07CF
:10012000031895281E08AD0799281E08AD07013051
:10013000AD07B90B7A280430B900AC0C0310AD0C34
:100140000318A428AC13A528AC17B90B9D280310DD
:100150001430AC07031CAF280130AD07AF282C08C2
:10016000AA002D08AB0003101830AA070318C028F6
:10017000FC30AB070318BE28B014C628B010C62840
:100180000310FD30AB070318BE28B014A601A5016B
:10019000A401A301A2012C08AA002D08AB00103075
:1001A000A8002730A9000D21031CD828A20ACB28BB
:1001B0002A08AC002B08AD002C08AA002D08AB00C3
:1001C000E830A8000330A9000D21031CE928A30A88
:1001D000DC282A08AC002B08AD002C08AA002D084A
:1001E000AB006430A800A9010D21031CF928A40A62
:1001F000ED282A08AC002B08AD002C08AA002D0819
:10020000AB000A30A800A9010D21031C0929A50A89
:10021000FD282A08A600301476282808AC020130F0
:10022000031CAD02031C1A292908AD02AC080319EE
:0C023000AD0808002908AD0203101629D3
:02400E00843FED
:00000001FF
